{"abi":[{"type":"constructor","inputs":[{"name":"_vaultEngine","type":"address","internalType":"address"},{"name":"_collateralJoin","type":"address","internalType":"address"},{"name":"_oinrToken","type":"address","internalType":"address"},{"name":"_priceOracle","type":"address","internalType":"address"}],"stateMutability":"nonpayable"},{"type":"function","name":"PRICE_PRECISION","inputs":[],"outputs":[{"name":"","type":"uint256","internalType":"uint256"}],"stateMutability":"view"},{"type":"function","name":"RATIO_PRECISION","inputs":[],"outputs":[{"name":"","type":"uint256","internalType":"uint256"}],"stateMutability":"view"},{"type":"function","name":"borrow","inputs":[{"name":"amount","type":"uint256","internalType":"uint256"}],"outputs":[],"stateMutability":"nonpayable"},{"type":"function","name":"buyOINR","inputs":[{"name":"oinrAmount","type":"uint256","internalType":"uint256"}],"outputs":[],"stateMutability":"nonpayable"},{"type":"function","name":"checkBorrowCapacity","inputs":[{"name":"user","type":"address","internalType":"address"},{"name":"borrowAmount","type":"uint256","internalType":"uint256"}],"outputs":[{"name":"canBorrow","type":"bool","internalType":"bool"},{"name":"maxBorrowable","type":"uint256","internalType":"uint256"}],"stateMutability":"view"},{"type":"function","name":"collateralDecimals","inputs":[],"outputs":[{"name":"","type":"uint8","internalType":"uint8"}],"stateMutability":"view"},{"type":"function","name":"collateralJoin","inputs":[],"outputs":[{"name":"","type":"address","internalType":"contract ICollateralJoin"}],"stateMutability":"view"},{"type":"function","name":"collateralToken","inputs":[],"outputs":[{"name":"","type":"address","internalType":"contract IERC20"}],"stateMutability":"view"},{"type":"function","name":"deposit","inputs":[{"name":"amount","type":"uint256","internalType":"uint256"}],"outputs":[],"stateMutability":"nonpayable"},{"type":"function","name":"getVaultInfo","inputs":[{"name":"user","type":"address","internalType":"address"}],"outputs":[{"name":"collateral","type":"uint256","internalType":"uint256"},{"name":"debt","type":"uint256","internalType":"uint256"},{"name":"collateralValueINR","type":"uint256","internalType":"uint256"},{"name":"collateralizationRatio","type":"uint256","internalType":"uint256"},{"name":"isHealthy","type":"bool","internalType":"bool"}],"stateMutability":"view"},{"type":"function","name":"minCollateralizationRatio","inputs":[],"outputs":[{"name":"","type":"uint256","internalType":"uint256"}],"stateMutability":"view"},{"type":"function","name":"oinrToken","inputs":[],"outputs":[{"name":"","type":"address","internalType":"contract IoINR"}],"stateMutability":"view"},{"type":"function","name":"owner","inputs":[],"outputs":[{"name":"","type":"address","internalType":"address"}],"stateMutability":"view"},{"type":"function","name":"priceOracle","inputs":[],"outputs":[{"name":"","type":"address","internalType":"contract IPriceOracle"}],"stateMutability":"view"},{"type":"function","name":"renounceOwnership","inputs":[],"outputs":[],"stateMutability":"nonpayable"},{"type":"function","name":"repay","inputs":[{"name":"amount","type":"uint256","internalType":"uint256"}],"outputs":[],"stateMutability":"nonpayable"},{"type":"function","name":"setMinCollateralizationRatio","inputs":[{"name":"newRatio","type":"uint256","internalType":"uint256"}],"outputs":[],"stateMutability":"nonpayable"},{"type":"function","name":"setPriceOracle","inputs":[{"name":"newOracle","type":"address","internalType":"address"}],"outputs":[],"stateMutability":"nonpayable"},{"type":"function","name":"transferOwnership","inputs":[{"name":"newOwner","type":"address","internalType":"address"}],"outputs":[],"stateMutability":"nonpayable"},{"type":"function","name":"vaultEngine","inputs":[],"outputs":[{"name":"","type":"address","internalType":"contract IVaultEngine"}],"stateMutability":"view"},{"type":"function","name":"withdraw","inputs":[{"name":"amount","type":"uint256","internalType":"uint256"}],"outputs":[],"stateMutability":"nonpayable"},{"type":"event","name":"Borrowed","inputs":[{"name":"user","type":"address","indexed":true,"internalType":"address"},{"name":"amount","type":"uint256","indexed":false,"internalType":"uint256"}],"anonymous":false},{"type":"event","name":"CollateralizationRatioUpdated","inputs":[{"name":"newRatio","type":"uint256","indexed":false,"internalType":"uint256"}],"anonymous":false},{"type":"event","name":"Deposited","inputs":[{"name":"user","type":"address","indexed":true,"internalType":"address"},{"name":"amount","type":"uint256","indexed":false,"internalType":"uint256"}],"anonymous":false},{"type":"event","name":"OINRPurchased","inputs":[{"name":"user","type":"address","indexed":true,"internalType":"address"},{"name":"oinrAmount","type":"uint256","indexed":false,"internalType":"uint256"},{"name":"usdcPaid","type":"uint256","indexed":false,"internalType":"uint256"}],"anonymous":false},{"type":"event","name":"OwnershipTransferred","inputs":[{"name":"previousOwner","type":"address","indexed":true,"internalType":"address"},{"name":"newOwner","type":"address","indexed":true,"internalType":"address"}],"anonymous":false},{"type":"event","name":"PriceOracleUpdated","inputs":[{"name":"oldOracle","type":"address","indexed":true,"internalType":"address"},{"name":"newOracle","type":"address","indexed":true,"internalType":"address"}],"anonymous":false},{"type":"event","name":"Repaid","inputs":[{"name":"user","type":"address","indexed":true,"internalType":"address"},{"name":"amount","type":"uint256","indexed":false,"internalType":"uint256"}],"anonymous":false},{"type":"event","name":"Withdrawn","inputs":[{"name":"user","type":"address","indexed":true,"internalType":"address"},{"name":"amount","type":"uint256","indexed":false,"internalType":"uint256"}],"anonymous":false},{"type":"error","name":"OwnableInvalidOwner","inputs":[{"name":"owner","type":"address","internalType":"address"}]},{"type":"error","name":"OwnableUnauthorizedAccount","inputs":[{"name":"account","type":"address","internalType":"address"}]},{"type":"error","name":"ReentrancyGuardReentrantCall","inputs":[]}],"bytecode":{"object":"0x610120604052613a98600355348015610016575f5ffd5b50604051613373380380613373833981810160405281019061003891906103e5565b3360015f819055505f73ffffffffffffffffffffffffffffffffffffffff168173ffffffffffffffffffffffffffffffffffffffff16036100b0575f6040517f1e4fbdf70000000000000000000000000000000000000000000000000000000081526004016100a79190610458565b60405180910390fd5b6100bf816102c460201b60201c565b508373ffffffffffffffffffffffffffffffffffffffff1660808173ffffffffffffffffffffffffffffffffffffffff16815250508273ffffffffffffffffffffffffffffffffffffffff1660a08173ffffffffffffffffffffffffffffffffffffffff16815250508173ffffffffffffffffffffffffffffffffffffffff1660e08173ffffffffffffffffffffffffffffffffffffffff16815250508060025f6101000a81548173ffffffffffffffffffffffffffffffffffffffff021916908373ffffffffffffffffffffffffffffffffffffffff16021790555060a05173ffffffffffffffffffffffffffffffffffffffff1663d8dfeb456040518163ffffffff1660e01b8152600401602060405180830381865afa1580156101e7573d5f5f3e3d5ffd5b505050506040513d601f19601f8201168201806040525081019061020b9190610471565b73ffffffffffffffffffffffffffffffffffffffff1660c08173ffffffffffffffffffffffffffffffffffffffff168152505060c05173ffffffffffffffffffffffffffffffffffffffff1663313ce5676040518163ffffffff1660e01b8152600401602060405180830381865afa158015610289573d5f5f3e3d5ffd5b505050506040513d601f19601f820116820180604052508101906102ad91906104d2565b60ff166101008160ff1681525050505050506104fd565b5f60015f9054906101000a900473ffffffffffffffffffffffffffffffffffffffff1690508160015f6101000a81548173ffffffffffffffffffffffffffffffffffffffff021916908373ffffffffffffffffffffffffffffffffffffffff1602179055508173ffffffffffffffffffffffffffffffffffffffff168173ffffffffffffffffffffffffffffffffffffffff167f8be0079c531659141344cd1fd0a4f28419497f9722a3daafe3b4186f6b6457e060405160405180910390a35050565b5f5ffd5b5f73ffffffffffffffffffffffffffffffffffffffff82169050919050565b5f6103b48261038b565b9050919050565b6103c4816103aa565b81146103ce575f5ffd5b50565b5f815190506103df816103bb565b92915050565b5f5f5f5f608085870312156103fd576103fc610387565b5b5f61040a878288016103d1565b945050602061041b878288016103d1565b935050604061042c878288016103d1565b925050606061043d878288016103d1565b91505092959194509250565b610452816103aa565b82525050565b5f60208201905061046b5f830184610449565b92915050565b5f6020828403121561048657610485610387565b5b5f610493848285016103d1565b91505092915050565b5f60ff82169050919050565b6104b18161049c565b81146104bb575f5ffd5b50565b5f815190506104cc816104a8565b92915050565b5f602082840312156104e7576104e6610387565b5b5f6104f4848285016104be565b91505092915050565b60805160a05160c05160e05161010051612d8a6105e95f395f818161060b01528181610eb9015281816111360152818161167b01528181611aa40152611ceb01525f81816109d001528181610fae015281816117e00152611c0601525f81816105e90152818161077201528181610e9701528181611114015281816112230152818161129101528181611659015281816119e20152611b2a01525f611db701525f81816104b6015281816106ea015281816108f301528181610a5801528181610d5d01528181610fd70152818161136d0152818161152f015281816117580152611d0f0152612d8a5ff3fe608060405234801561000f575f5ffd5b5060043610610135575f3560e01c806395082d25116100b6578063d32867d01161007a578063d32867d014610304578063e59574e014610322578063ec9c6c301461033e578063f29176c31461035c578063f2fde38b1461037a578063f364e1801461039657610135565b806395082d2514610272578063b2016bd414610290578063b6b55f25146102ae578063ba1be554146102ca578063c5ebeaec146102e857610135565b80637b44646a116100fd5780637b44646a146101b55780637da253e6146101d15780638da5cb5b146102025780638f730df51461022057806390229af71461023e57610135565b80632630c12f146101395780632e1a7d4d14610157578063371fd8e614610173578063530e784f1461018f578063715018a6146101ab575b5f5ffd5b6101416103b4565b60405161014e9190611ff1565b60405180910390f35b610171600480360381019061016c9190612041565b6103d9565b005b61018d60048036038101906101889190612041565b6108a6565b005b6101a960048036038101906101a491906120a7565b610b38565b005b6101b3610c71565b005b6101cf60048036038101906101ca9190612041565b610c84565b005b6101eb60048036038101906101e691906120d2565b610d57565b6040516101f9929190612139565b60405180910390f35b61020a610f84565b604051610217919061216f565b60405180910390f35b610228610fac565b60405161023591906121a8565b60405180910390f35b610258600480360381019061025391906120a7565b610fd0565b6040516102699594939291906121c1565b60405180910390f35b61027a611215565b6040516102879190612212565b60405180910390f35b610298611221565b6040516102a5919061224b565b60405180910390f35b6102c860048036038101906102c39190612041565b611245565b005b6102d261144c565b6040516102df9190612212565b60405180910390f35b61030260048036038101906102fd9190612041565b611452565b005b61030c6118c3565b6040516103199190612212565b60405180910390f35b61033c60048036038101906103379190612041565b6118c9565b005b610346611ce9565b604051610353919061227f565b60405180910390f35b610364611d0d565b60405161037191906122b8565b60405180910390f35b610394600480360381019061038f91906120a7565b611d31565b005b61039e611db5565b6040516103ab91906122f1565b60405180910390f35b60025f9054906101000a900473ffffffffffffffffffffffffffffffffffffffff1681565b6103e1611dd9565b5f8111610423576040517f08c379a000000000000000000000000000000000000000000000000000000000815260040161041a90612364565b60405180910390fd5b5f73ffffffffffffffffffffffffffffffffffffffff1660025f9054906101000a900473ffffffffffffffffffffffffffffffffffffffff1673ffffffffffffffffffffffffffffffffffffffff16036104b2576040517f08c379a00000000000000000000000000000000000000000000000000000000081526004016104a9906123cc565b60405180910390fd5b5f5f7f000000000000000000000000000000000000000000000000000000000000000073ffffffffffffffffffffffffffffffffffffffff1663a622ee7c336040518263ffffffff1660e01b815260040161050d919061216f565b6040805180830381865afa158015610527573d5f5f3e3d5ffd5b505050506040513d601f19601f8201168201806040525081019061054b91906123fe565b9150915082821015610592576040517f08c379a000000000000000000000000000000000000000000000000000000000815260040161058990612486565b60405180910390fd5b5f838361059f91906124d1565b90505f8211156106e8575f60025f9054906101000a900473ffffffffffffffffffffffffffffffffffffffff1673ffffffffffffffffffffffffffffffffffffffff1663e96eeb787f0000000000000000000000000000000000000000000000000000000000000000847f00000000000000000000000000000000000000000000000000000000000000006040518463ffffffff1660e01b815260040161064893929190612534565b602060405180830381865afa158015610663573d5f5f3e3d5ffd5b505050506040513d601f19601f820116820180604052508101906106879190612569565b9050600354836106979190612594565b612710826106a59190612594565b10156106e6576040517f08c379a00000000000000000000000000000000000000000000000000000000081526004016106dd90612645565b60405180910390fd5b505b7f000000000000000000000000000000000000000000000000000000000000000073ffffffffffffffffffffffffffffffffffffffff1663d2130fe233866040518363ffffffff1660e01b8152600401610743929190612663565b5f604051808303815f87803b15801561075a575f5ffd5b505af115801561076c573d5f5f3e3d5ffd5b505050507f000000000000000000000000000000000000000000000000000000000000000073ffffffffffffffffffffffffffffffffffffffff1663a9059cbb33866040518363ffffffff1660e01b81526004016107cb929190612663565b6020604051808303815f875af11580156107e7573d5f5f3e3d5ffd5b505050506040513d601f19601f8201168201806040525081019061080b91906126b4565b61084a576040517f08c379a000000000000000000000000000000000000000000000000000000000815260040161084190612729565b60405180910390fd5b3373ffffffffffffffffffffffffffffffffffffffff167f7084f5476618d8e60b11ef0d7d3f06914655adb8793e28ff7f018d4c76d505d5856040516108909190612212565b60405180910390a25050506108a3611e1d565b50565b6108ae611dd9565b5f81116108f0576040517f08c379a00000000000000000000000000000000000000000000000000000000081526004016108e790612364565b60405180910390fd5b5f7f000000000000000000000000000000000000000000000000000000000000000073ffffffffffffffffffffffffffffffffffffffff1663a622ee7c336040518263ffffffff1660e01b815260040161094a919061216f565b6040805180830381865afa158015610964573d5f5f3e3d5ffd5b505050506040513d601f19601f8201168201806040525081019061098891906123fe565b915050818110156109ce576040517f08c379a00000000000000000000000000000000000000000000000000000000081526004016109c590612791565b60405180910390fd5b7f000000000000000000000000000000000000000000000000000000000000000073ffffffffffffffffffffffffffffffffffffffff16639dc29fac33846040518363ffffffff1660e01b8152600401610a29929190612663565b5f604051808303815f87803b158015610a40575f5ffd5b505af1158015610a52573d5f5f3e3d5ffd5b505050507f000000000000000000000000000000000000000000000000000000000000000073ffffffffffffffffffffffffffffffffffffffff16632fb9ba3133846040518363ffffffff1660e01b8152600401610ab1929190612663565b5f604051808303815f87803b158015610ac8575f5ffd5b505af1158015610ada573d5f5f3e3d5ffd5b505050503373ffffffffffffffffffffffffffffffffffffffff167f0516911bcc3a0a7412a44601057c0a0a1ec628bde049a84284bc42886653448883604051610b249190612212565b60405180910390a250610b35611e1d565b50565b610b40611e26565b5f73ffffffffffffffffffffffffffffffffffffffff168173ffffffffffffffffffffffffffffffffffffffff1603610bae576040517f08c379a0000000000000000000000000000000000000000000000000000000008152600401610ba5906127f9565b60405180910390fd5b5f60025f9054906101000a900473ffffffffffffffffffffffffffffffffffffffff1690508160025f6101000a81548173ffffffffffffffffffffffffffffffffffffffff021916908373ffffffffffffffffffffffffffffffffffffffff1602179055508173ffffffffffffffffffffffffffffffffffffffff168173ffffffffffffffffffffffffffffffffffffffff167f56b5f80d8cac1479698aa7d01605fd6111e90b15fc4d2b377417f46034876cbd60405160405180910390a35050565b610c79611e26565b610c825f611ead565b565b610c8c611e26565b612710811015610cd1576040517f08c379a0000000000000000000000000000000000000000000000000000000008152600401610cc890612861565b60405180910390fd5b61c350811115610d16576040517f08c379a0000000000000000000000000000000000000000000000000000000008152600401610d0d906128c9565b60405180910390fd5b806003819055507ffb0ebe8c7316e6a251494c38876d13d9a3a029273fce7964c12aa2ce0786953081604051610d4c9190612212565b60405180910390a150565b5f5f5f5f7f000000000000000000000000000000000000000000000000000000000000000073ffffffffffffffffffffffffffffffffffffffff1663a622ee7c876040518263ffffffff1660e01b8152600401610db4919061216f565b6040805180830381865afa158015610dce573d5f5f3e3d5ffd5b505050506040513d601f19601f82011682018060405250810190610df291906123fe565b915091505f73ffffffffffffffffffffffffffffffffffffffff1660025f9054906101000a900473ffffffffffffffffffffffffffffffffffffffff1673ffffffffffffffffffffffffffffffffffffffff1614158015610e5257505f82115b15610f75575f60025f9054906101000a900473ffffffffffffffffffffffffffffffffffffffff1673ffffffffffffffffffffffffffffffffffffffff1663e96eeb787f0000000000000000000000000000000000000000000000000000000000000000857f00000000000000000000000000000000000000000000000000000000000000006040518463ffffffff1660e01b8152600401610ef693929190612534565b602060405180830381865afa158015610f11573d5f5f3e3d5ffd5b505050506040513d601f19601f82011682018060405250810190610f359190612569565b905060035461271082610f489190612594565b610f529190612914565b935081841115610f6f578184610f6891906124d1565b9350610f73565b5f93505b505b82851115935050509250929050565b5f60015f9054906101000a900473ffffffffffffffffffffffffffffffffffffffff16905090565b7f000000000000000000000000000000000000000000000000000000000000000081565b5f5f5f5f5f7f000000000000000000000000000000000000000000000000000000000000000073ffffffffffffffffffffffffffffffffffffffff1663a622ee7c876040518263ffffffff1660e01b815260040161102e919061216f565b6040805180830381865afa158015611048573d5f5f3e3d5ffd5b505050506040513d601f19601f8201168201806040525081019061106c91906123fe565b80955081965050505f73ffffffffffffffffffffffffffffffffffffffff1660025f9054906101000a900473ffffffffffffffffffffffffffffffffffffffff1673ffffffffffffffffffffffffffffffffffffffff16141580156110d057505f85115b156111b55760025f9054906101000a900473ffffffffffffffffffffffffffffffffffffffff1673ffffffffffffffffffffffffffffffffffffffff1663e96eeb787f0000000000000000000000000000000000000000000000000000000000000000877f00000000000000000000000000000000000000000000000000000000000000006040518463ffffffff1660e01b815260040161117393929190612534565b602060405180830381865afa15801561118e573d5f5f3e3d5ffd5b505050506040513d601f19601f820116820180604052508101906111b29190612569565b92505b5f84036111e8577fffffffffffffffffffffffffffffffffffffffffffffffffffffffffffffffff91506001905061120c565b83612710846111f79190612594565b6112019190612914565b915060035482101590505b91939590929450565b670de0b6b3a764000081565b7f000000000000000000000000000000000000000000000000000000000000000081565b61124d611dd9565b5f811161128f576040517f08c379a000000000000000000000000000000000000000000000000000000000815260040161128690612364565b60405180910390fd5b7f000000000000000000000000000000000000000000000000000000000000000073ffffffffffffffffffffffffffffffffffffffff166323b872dd3330846040518463ffffffff1660e01b81526004016112ec93929190612944565b6020604051808303815f875af1158015611308573d5f5f3e3d5ffd5b505050506040513d601f19601f8201168201806040525081019061132c91906126b4565b61136b576040517f08c379a000000000000000000000000000000000000000000000000000000000815260040161136290612729565b60405180910390fd5b7f000000000000000000000000000000000000000000000000000000000000000073ffffffffffffffffffffffffffffffffffffffff1663ba6e52e633836040518363ffffffff1660e01b81526004016113c6929190612663565b5f604051808303815f87803b1580156113dd575f5ffd5b505af11580156113ef573d5f5f3e3d5ffd5b505050503373ffffffffffffffffffffffffffffffffffffffff167f2da466a7b24304f47e87fa2e1e5a81b9831ce54fec19055ce277ca2f39ba42c4826040516114399190612212565b60405180910390a2611449611e1d565b50565b60035481565b61145a611dd9565b5f811161149c576040517f08c379a000000000000000000000000000000000000000000000000000000000815260040161149390612364565b60405180910390fd5b5f73ffffffffffffffffffffffffffffffffffffffff1660025f9054906101000a900473ffffffffffffffffffffffffffffffffffffffff1673ffffffffffffffffffffffffffffffffffffffff160361152b576040517f08c379a0000000000000000000000000000000000000000000000000000000008152600401611522906123cc565b60405180910390fd5b5f5f7f000000000000000000000000000000000000000000000000000000000000000073ffffffffffffffffffffffffffffffffffffffff1663a622ee7c336040518263ffffffff1660e01b8152600401611586919061216f565b6040805180830381865afa1580156115a0573d5f5f3e3d5ffd5b505050506040513d601f19601f820116820180604052508101906115c491906123fe565b915091505f821161160a576040517f08c379a0000000000000000000000000000000000000000000000000000000008152600401611601906129c3565b60405180910390fd5b5f838261161791906129e1565b90505f60025f9054906101000a900473ffffffffffffffffffffffffffffffffffffffff1673ffffffffffffffffffffffffffffffffffffffff1663e96eeb787f0000000000000000000000000000000000000000000000000000000000000000867f00000000000000000000000000000000000000000000000000000000000000006040518463ffffffff1660e01b81526004016116b893929190612534565b602060405180830381865afa1580156116d3573d5f5f3e3d5ffd5b505050506040513d601f19601f820116820180604052508101906116f79190612569565b9050600354826117079190612594565b612710826117159190612594565b1015611756576040517f08c379a000000000000000000000000000000000000000000000000000000000815260040161174d90612a5e565b60405180910390fd5b7f000000000000000000000000000000000000000000000000000000000000000073ffffffffffffffffffffffffffffffffffffffff1663f8585db333876040518363ffffffff1660e01b81526004016117b1929190612663565b5f604051808303815f87803b1580156117c8575f5ffd5b505af11580156117da573d5f5f3e3d5ffd5b505050507f000000000000000000000000000000000000000000000000000000000000000073ffffffffffffffffffffffffffffffffffffffff166340c10f1933876040518363ffffffff1660e01b8152600401611839929190612663565b5f604051808303815f87803b158015611850575f5ffd5b505af1158015611862573d5f5f3e3d5ffd5b505050503373ffffffffffffffffffffffffffffffffffffffff167fac59582e5396aca512fa873a2047e7f4c80f8f55d4a06cb34a78a0187f62719f866040516118ac9190612212565b60405180910390a2505050506118c0611e1d565b50565b61271081565b6118d1611dd9565b5f8111611913576040517f08c379a000000000000000000000000000000000000000000000000000000000815260040161190a90612364565b60405180910390fd5b5f73ffffffffffffffffffffffffffffffffffffffff1660025f9054906101000a900473ffffffffffffffffffffffffffffffffffffffff1673ffffffffffffffffffffffffffffffffffffffff16036119a2576040517f08c379a0000000000000000000000000000000000000000000000000000000008152600401611999906123cc565b60405180910390fd5b5f60025f9054906101000a900473ffffffffffffffffffffffffffffffffffffffff1673ffffffffffffffffffffffffffffffffffffffff166341976e097f00000000000000000000000000000000000000000000000000000000000000006040518263ffffffff1660e01b8152600401611a1d919061216f565b602060405180830381865afa158015611a38573d5f5f3e3d5ffd5b505050506040513d601f19601f82011682018060405250810190611a5c9190612569565b90505f8111611aa0576040517f08c379a0000000000000000000000000000000000000000000000000000000008152600401611a9790612ac6565b60405180910390fd5b5f817f0000000000000000000000000000000000000000000000000000000000000000600a611acf9190612c13565b84611ada9190612594565b611ae49190612914565b90505f8111611b28576040517f08c379a0000000000000000000000000000000000000000000000000000000008152600401611b1f90612ca7565b60405180910390fd5b7f000000000000000000000000000000000000000000000000000000000000000073ffffffffffffffffffffffffffffffffffffffff166323b872dd3330846040518463ffffffff1660e01b8152600401611b8593929190612944565b6020604051808303815f875af1158015611ba1573d5f5f3e3d5ffd5b505050506040513d601f19601f82011682018060405250810190611bc591906126b4565b611c04576040517f08c379a0000000000000000000000000000000000000000000000000000000008152600401611bfb90612d0f565b60405180910390fd5b7f000000000000000000000000000000000000000000000000000000000000000073ffffffffffffffffffffffffffffffffffffffff166340c10f1933856040518363ffffffff1660e01b8152600401611c5f929190612663565b5f604051808303815f87803b158015611c76575f5ffd5b505af1158015611c88573d5f5f3e3d5ffd5b505050503373ffffffffffffffffffffffffffffffffffffffff167f78b39245ebe310a4ca8843cac668a9f31b981b7566c9c2e4409a8c240c99ece98483604051611cd4929190612d2d565b60405180910390a25050611ce6611e1d565b50565b7f000000000000000000000000000000000000000000000000000000000000000081565b7f000000000000000000000000000000000000000000000000000000000000000081565b611d39611e26565b5f73ffffffffffffffffffffffffffffffffffffffff168173ffffffffffffffffffffffffffffffffffffffff1603611da9575f6040517f1e4fbdf7000000000000000000000000000000000000000000000000000000008152600401611da0919061216f565b60405180910390fd5b611db281611ead565b50565b7f000000000000000000000000000000000000000000000000000000000000000081565b60025f5403611e14576040517f3ee5aeb500000000000000000000000000000000000000000000000000000000815260040160405180910390fd5b60025f81905550565b60015f81905550565b611e2e611f70565b73ffffffffffffffffffffffffffffffffffffffff16611e4c610f84565b73ffffffffffffffffffffffffffffffffffffffff1614611eab57611e6f611f70565b6040517f118cdaa7000000000000000000000000000000000000000000000000000000008152600401611ea2919061216f565b60405180910390fd5b565b5f60015f9054906101000a900473ffffffffffffffffffffffffffffffffffffffff1690508160015f6101000a81548173ffffffffffffffffffffffffffffffffffffffff021916908373ffffffffffffffffffffffffffffffffffffffff1602179055508173ffffffffffffffffffffffffffffffffffffffff168173ffffffffffffffffffffffffffffffffffffffff167f8be0079c531659141344cd1fd0a4f28419497f9722a3daafe3b4186f6b6457e060405160405180910390a35050565b5f33905090565b5f73ffffffffffffffffffffffffffffffffffffffff82169050919050565b5f819050919050565b5f611fb9611fb4611faf84611f77565b611f96565b611f77565b9050919050565b5f611fca82611f9f565b9050919050565b5f611fdb82611fc0565b9050919050565b611feb81611fd1565b82525050565b5f6020820190506120045f830184611fe2565b92915050565b5f5ffd5b5f819050919050565b6120208161200e565b811461202a575f5ffd5b50565b5f8135905061203b81612017565b92915050565b5f602082840312156120565761205561200a565b5b5f6120638482850161202d565b91505092915050565b5f61207682611f77565b9050919050565b6120868161206c565b8114612090575f5ffd5b50565b5f813590506120a18161207d565b92915050565b5f602082840312156120bc576120bb61200a565b5b5f6120c984828501612093565b91505092915050565b5f5f604083850312156120e8576120e761200a565b5b5f6120f585828601612093565b92505060206121068582860161202d565b9150509250929050565b5f8115159050919050565b61212481612110565b82525050565b6121338161200e565b82525050565b5f60408201905061214c5f83018561211b565b612159602083018461212a565b9392505050565b6121698161206c565b82525050565b5f6020820190506121825f830184612160565b92915050565b5f61219282611fc0565b9050919050565b6121a281612188565b82525050565b5f6020820190506121bb5f830184612199565b92915050565b5f60a0820190506121d45f83018861212a565b6121e1602083018761212a565b6121ee604083018661212a565b6121fb606083018561212a565b612208608083018461211b565b9695505050505050565b5f6020820190506122255f83018461212a565b92915050565b5f61223582611fc0565b9050919050565b6122458161222b565b82525050565b5f60208201905061225e5f83018461223c565b92915050565b5f60ff82169050919050565b61227981612264565b82525050565b5f6020820190506122925f830184612270565b92915050565b5f6122a282611fc0565b9050919050565b6122b281612298565b82525050565b5f6020820190506122cb5f8301846122a9565b92915050565b5f6122db82611fc0565b9050919050565b6122eb816122d1565b82525050565b5f6020820190506123045f8301846122e2565b92915050565b5f82825260208201905092915050565b7f416d6f756e74206d757374206265203e203000000000000000000000000000005f82015250565b5f61234e60128361230a565b91506123598261231a565b602082019050919050565b5f6020820190508181035f83015261237b81612342565b9050919050565b7f4f7261636c65206e6f74207365740000000000000000000000000000000000005f82015250565b5f6123b6600e8361230a565b91506123c182612382565b602082019050919050565b5f6020820190508181035f8301526123e3816123aa565b9050919050565b5f815190506123f881612017565b92915050565b5f5f604083850312156124145761241361200a565b5b5f612421858286016123ea565b9250506020612432858286016123ea565b9150509250929050565b7f496e73756666696369656e7420636f6c6c61746572616c0000000000000000005f82015250565b5f61247060178361230a565b915061247b8261243c565b602082019050919050565b5f6020820190508181035f83015261249d81612464565b9050919050565b7f4e487b71000000000000000000000000000000000000000000000000000000005f52601160045260245ffd5b5f6124db8261200e565b91506124e68361200e565b92508282039050818111156124fe576124fd6124a4565b5b92915050565b5f61251e61251961251484612264565b611f96565b61200e565b9050919050565b61252e81612504565b82525050565b5f6060820190506125475f830186612160565b612554602083018561212a565b6125616040830184612525565b949350505050565b5f6020828403121561257e5761257d61200a565b5b5f61258b848285016123ea565b91505092915050565b5f61259e8261200e565b91506125a98361200e565b92508282026125b78161200e565b915082820484148315176125ce576125cd6124a4565b5b5092915050565b7f5769746864726177616c20776f756c6420756e6465722d636f6c6c61746572615f8201527f6c697a65207661756c7400000000000000000000000000000000000000000000602082015250565b5f61262f602a8361230a565b915061263a826125d5565b604082019050919050565b5f6020820190508181035f83015261265c81612623565b9050919050565b5f6040820190506126765f830185612160565b612683602083018461212a565b9392505050565b61269381612110565b811461269d575f5ffd5b50565b5f815190506126ae8161268a565b92915050565b5f602082840312156126c9576126c861200a565b5b5f6126d6848285016126a0565b91505092915050565b7f5472616e73666572206661696c656400000000000000000000000000000000005f82015250565b5f612713600f8361230a565b915061271e826126df565b602082019050919050565b5f6020820190508181035f83015261274081612707565b9050919050565b7f526570617920616d6f756e7420657863656564732064656274000000000000005f82015250565b5f61277b60198361230a565b915061278682612747565b602082019050919050565b5f6020820190508181035f8301526127a88161276f565b9050919050565b7f496e76616c6964206f7261636c652061646472657373000000000000000000005f82015250565b5f6127e360168361230a565b91506127ee826127af565b602082019050919050565b5f6020820190508181035f830152612810816127d7565b9050919050565b7f526174696f206d757374206265203e3d203130302500000000000000000000005f82015250565b5f61284b60158361230a565b915061285682612817565b602082019050919050565b5f6020820190508181035f8301526128788161283f565b9050919050565b7f526174696f20746f6f20686967680000000000000000000000000000000000005f82015250565b5f6128b3600e8361230a565b91506128be8261287f565b602082019050919050565b5f6020820190508181035f8301526128e0816128a7565b9050919050565b7f4e487b71000000000000000000000000000000000000000000000000000000005f52601260045260245ffd5b5f61291e8261200e565b91506129298361200e565b925082612939576129386128e7565b5b828204905092915050565b5f6060820190506129575f830186612160565b6129646020830185612160565b612971604083018461212a565b949350505050565b7f4e6f20636f6c6c61746572616c206465706f73697465640000000000000000005f82015250565b5f6129ad60178361230a565b91506129b882612979565b602082019050919050565b5f6020820190508181035f8301526129da816129a1565b9050919050565b5f6129eb8261200e565b91506129f68361200e565b9250828201905080821115612a0e57612a0d6124a4565b5b92915050565b7f496e73756666696369656e7420636f6c6c61746572616c697a6174696f6e00005f82015250565b5f612a48601e8361230a565b9150612a5382612a14565b602082019050919050565b5f6020820190508181035f830152612a7581612a3c565b9050919050565b7f496e76616c6964207072696365000000000000000000000000000000000000005f82015250565b5f612ab0600d8361230a565b9150612abb82612a7c565b602082019050919050565b5f6020820190508181035f830152612add81612aa4565b9050919050565b5f8160011c9050919050565b5f5f8291508390505b6001851115612b3957808604811115612b1557612b146124a4565b5b6001851615612b245780820291505b8081029050612b3285612ae4565b9450612af9565b94509492505050565b5f82612b515760019050612c0c565b81612b5e575f9050612c0c565b8160018114612b745760028114612b7e57612bad565b6001915050612c0c565b60ff841115612b9057612b8f6124a4565b5b8360020a915084821115612ba757612ba66124a4565b5b50612c0c565b5060208310610133831016604e8410600b8410161715612be25782820a905083811115612bdd57612bdc6124a4565b5b612c0c565b612bef8484846001612af0565b92509050818404811115612c0657612c056124a4565b5b81810290505b9392505050565b5f612c1d8261200e565b9150612c2883612264565b9250612c557fffffffffffffffffffffffffffffffffffffffffffffffffffffffffffffffff8484612b42565b905092915050565b7f416d6f756e7420746f6f20736d616c6c000000000000000000000000000000005f82015250565b5f612c9160108361230a565b9150612c9c82612c5d565b602082019050919050565b5f6020820190508181035f830152612cbe81612c85565b9050919050565b7f55534443207472616e73666572206661696c65640000000000000000000000005f82015250565b5f612cf960148361230a565b9150612d0482612cc5565b602082019050919050565b5f6020820190508181035f830152612d2681612ced565b9050919050565b5f604082019050612d405f83018561212a565b612d4d602083018461212a565b939250505056fea2646970667358221220546457b6a4ab3f47851f2e05ab2104bba416c9b7e83faf30d750dc3ebc53212f64736f6c634300081e0033","linkReferences":{}},"methodIdentifiers":{"PRICE_PRECISION()":"95082d25","RATIO_PRECISION()":"d32867d0","borrow(uint256)":"c5ebeaec","buyOINR(uint256)":"e59574e0","checkBorrowCapacity(address,uint256)":"7da253e6","collateralDecimals()":"ec9c6c30","collateralJoin()":"f364e180","collateralToken()":"b2016bd4","deposit(uint256)":"b6b55f25","getVaultInfo(address)":"90229af7","minCollateralizationRatio()":"ba1be554","oinrToken()":"8f730df5","owner()":"8da5cb5b","priceOracle()":"2630c12f","renounceOwnership()":"715018a6","repay(uint256)":"371fd8e6","setMinCollateralizationRatio(uint256)":"7b44646a","setPriceOracle(address)":"530e784f","transferOwnership(address)":"f2fde38b","vaultEngine()":"f29176c3","withdraw(uint256)":"2e1a7d4d"},"id":30}